S123F8008E00FF8600B710268601B740008630B7102B860CB7102D86A097028600970A86CC
S123F820FF9711BDF9DABDF8BF86009709CE02BCBDF8BBBDF9E281A0270D7C000927E7CEA9
S123F84002BCBDF8BB20EC18CE0003BDF97B9611270718CE0003BDFA0FB6102E84202740CD
S123F860B6102F813F2611960A8101263318CE0003C606BDFA7420B1814326068600970A55
S123F880201E815226068601970A2026812B260686FF9711201C812D26068600971120123E
S123F8A0960A8100260C18CE0002C607BDFA747EF829CE02BCBDF8BB7EF8290926FD39C6AC
S123F8C010F71000C630F71000010101C610F71000010101C600F71000C610F71000010181
S123F8E001C600F71000C610F71000010101C600F71000C610F71000010101C600F71000DC
S123F900C610F71000C610F71000CE0962BDF8BBC630F71000CE02F0BDF8BB860797011816
S123F920CEF9748608970018A600482411C630F71000C620F71000C630F71000200FC6103C
S123F940F71000C600F71000C610F710000101017A000026D5CE001EBDF8BB18087A000183
S123F96026C1CE0128BDF8BBC610F71000CE4E20BDF8BB3906C1080002FF01BDF9E218A74B
S123F980001808CE001EBDF8BBBDF9E218A7001808CE001EBDF8BBBDF9E218A7001808CECF
S123F9A0001EBDF8BBBDF9E218A7001808CE001EBDF8BBBDF9E218A7001808CE001EBDF8CA
S123F9C0BBBDF9E218A700CE001EBDF8BBBDF9E2CE001EBDF8BBBDF9E239CC0000DD0BDD5F
S123F9E00D39C610F71000C630F71000010101C610F710008608970048F61000C4011BC6EA
S123FA0000F71000C610F710007A000026EA3918A6052603BDF9DA4F18E6002A0143DD0F18
S123FA20930B1A8300022F07DC0F830002DD0BDC0B930F1A8300022F07DC0FC30002DD0B01
S123FA404F18E6012A0143DD0F930D1A8300022F07DC0F830002DD0DDC0D930F1A83000201
S123FA602F07DC0FC30002DD0D960C18A700960E18A70139B6102E848027F918A600B71017
S10AFA802F18085A26EE3985
S109FFFAF800F800F80015
S9030000FC
