S113D8008E00FF8600B710268601B740008630B729
S113D810102B860CB7102D86A097028600970A86D7
S113D820FF9711BDD9DABDD8BF86009709CE02BCD7
S113D830BDD8BBBDD9E281A0270D7C000927E7CE66
S113D84002BCBDD8BB20EC18CE0003BDD97B961119
S113D850270718CE0003BDDA0FB6102E8420274008
S113D860B6102F813F2611960A8101263318CE0067
S113D87003C606BDDA7420B1814326068600970AE2
S113D880201E815226068601970A2026812B260611
S113D89086FF9711201C812D2606860097112012E1
S113D8A0960A8100260C18CE0002C607BDDA747EE3
S113D8B0D829CE02BCBDD8BB7ED8290926FD39C6DD
S113D8C010F71000C630F71000010101C610F71060
S113D8D000010101C600F71000C610F71000010195
S113D8E001C600F71000C610F71000010101C600C0
S113D8F0F71000C610F71000010101C600F7100070
S113D900C610F71000C610F71000CE0962BDD8BBD0
S113D910C630F71000CE02F0BDD8BB8607970118B9
S113D920CED9748608970018A600482411C630F78B
S113D9301000C620F71000C630F71000200FC610E4
S113D940F71000C600F71000C610F710000101011F
S113D9507A000026D5CE001EBDD8BB18087A000177
S113D96026C1CE0128BDD8BBC610F71000CE4E206C
S113D970BDD8BB3906C1080002FF01BDD9E218A712
S113D980001808CE001EBDD8BBBDD9E218A70018E8
S113D99008CE001EBDD8BBBDD9E218A7001808CE1A
S113D9A0001EBDD8BBBDD9E218A7001808CE001EC2
S113D9B0BDD8BBBDD9E218A7001808CE001EBDD83B
S113D9C0BBBDD9E218A700CE001EBDD8BBBDD9E2AD
S113D9D0CE001EBDD8BBBDD9E239CC0000DD0BDDC5
S113D9E00D39C610F71000C630F71000010101C64A
S113D9F010F710008608970048F61000C4011BC6F3
S113DA0000F71000C610F710007A000026EA391853
S113DA10A6052603BDD9DA4F18E6002A0143DD0F17
S113DA20930B1A8300022F07DC0F830002DD0BDC4B
S113DA300B930F1A8300022F07DC0FC30002DD0BC8
S113DA404F18E6012A0143DD0F930D1A8300022FBC
S113DA5007DC0F830002DD0DDC0D930F1A83000237
S113DA602F07DC0FC30002DD0D960C18A700960EDD
S113DA7018A70139B6102E848027F918A600B7100C
S10ADA802F18085A26EE39A5
S9030000FC
